:100000000C948A280C94B2280C94B2280C94B22830
:100010000C94B2280C94B2280C94B2280C94B228F8
:100020000C94B2280C94B2280C94B2280C94B228E8
:100030000C94B2280C94B2280C94B2280C94B228D8
:100040000C94C7310C94B2280C9495310C946F31F8
:100050000C94B2280C94B2280C94B2280C94B228B8
:100060000C94B2280C94B2280000FF0000007F001E
:100070000055AB00002A550000ABAB000055550001
:1000800000FF0000007F000055AB00002A55000073
:10009000FF0000007F000000AB00550055002A0063
:1000A0005500AB002A0055000000FF0000000000D2
:1000B0000055AB000000000000ABAB0000000000EA
:1000C00000FF00000000000055AB00000000000031
:1000D000FF00000000000000AB0055000000000021
:1000E0005500AB00000000000000FF00002AD50012
:1000F0000055AB00007FAB0000ABAB0000D5560055
:1001000000FF00002AD5000055AB0000AA560000F1
:10011000FF000000D5002A00AB00550081007F00E1
:100120005500AB002B00D500E3000100F401000CEA
:100130000005A36AE2D51E6C6A070780D53E918848
:10014000546209199EC22232682D9BF92192D6A1D0
:10015000936C544202000B028182034060805090F5
:1001600038281C1C120D0180C1E1008070584C1C05
:100170000C0A1404050784C2A030183416120E05A8
:100180000B8487C14060610050882810142A130234
:100190001D03854260B06844160B0A118214821D4B
:1001A0008281C26170682C160F0B0F052082060237
:1001B00081C1614520A31090585C0A070B828B42D5
:1001C00042E050B85C1E170385C0E070A838541C8C
:1001D0001E050984C260614050B0403810C8141A2E
:1001E0000F0A81000242A147E0610050B0F82810D8
:1001F0001012A4193410E8142A1445050281944100
:10020000C121106824060D08854200A085E14661E1
:100210001DE1C020010500F40100100005E673395E
:10022000988C4623FF00807FEDB6DAAD56ABBBDD80
:10023000EEF3399CCC8A4522FFFFFFFDDEEF76CD41
:1002400066B35128944BBDDEEFEEF77BA02006B0DD
:1002500028183FF83CE80264100A28100E0A0A0623
:10026000050A0807040503028507860005078F8233
:100270000C04838583C80403A005038684022889AF
:10028000803441A0F02840385426150781C2E1602F
:10029000F13030583854181E22190A8680C1424461
:1002A000026110A8542A180E130C8543A0D030F810
:1002B000A839701C2E1C0F106C090B8183C4438558
:1002C000E3A030387C2A164F1400570E874387204E
:1002D000A130C04038743A1B014C828540E030D8D0
:1002E0003820242A1D01854361B0E8503C1C361B90
:1002F000028743613018523C1C341E094C0A1AE62E
:100300000608080F1B0B8483C543A1D071E0207839
:1003100092A84078A86C36190A178B018284438111
:10032000E352E081E721706078A83C1E170F378DFB
:1003300087C301E2801FC01FC0038038030400147C
:1003400000000F00028442211198CC664F2793F1E0
:10035000F8FC7EBF5FAF7FBFDFEDF6FB7F9FCFE78F
:10036000CFE7F3F8FC7E3E6F379BD72B95CA45222B
:1003700091B6DB6DA0101810005406030081C12057
:10038000A0011048303C141E110983C1A09058549C
:100390001A13088540E030185C26190B85C361D01C
:1003A0004864361B0C84C3203018341E070385C3F1
:1003B00021D0E83432190C83C26050283434300E16
:1003C0001C10050783C1E150280C1E1509854260E9
:1003D00090E874121309870BC1C36170A84C321DD9
:1003E0000C83C3A0D098542C9E0C7A0E12320504B4
:1003F00083C36060F050D8140A070A84C261305881
:100400002436070285C06030781406070A8643A0A8
:10041000B068243217038383C142E050D8342A19CC
:10042000078243A0F0B86C26050185C1A070783220
:10043000081C26150D85432030080C3615078190C1
:10044000C142E17070402078210828399014360F9D
:10045000062D0280000140400201A11FE4C060DFC0
:10046000E1E0D057F827E0284C3A11064F8384C3C7
:1004700021B0B85C361D0583C360F0986BFC142A6C
:10048000150786C360F048241A189704EF04DF05A7
:100490000E84C16150E0A828683C142E050B7782B9
:1004A00087416090A8642E16FF04AA070E84BFC17E
:1004B000094141C7E09C80A190E83434260A130E1C
:1004C0008307C142E05031782834260ADF0503074C
:1004D00082863781144113C1C2E0706814060D078B
:1004E00083C360703288283814117C14360D038160
:1004F000406050385410BC091E0A0101863F8243F7
:100500006127D050C7F8486C1A18FF04C304FF1ABB
:10051000EC06FF430181C280C08000A150A82C22BC
:1005200014FF050C85436145B04C0050E7F8485472
:1005300036060A070682380141E13025782814364C
:10054000130682C160D04863FC340A16EA050E87A0
:100550004256C0DFE1A0C3E0895040F050B85424B7
:10056000900A0F048343A150B278286C1A130685B1
:1005700043A14FF04F4050780C060F0B85C2E1B0FD
:10058000A8543A130783C31DE0E0C330424050E84B
:100590003C35A60A150180C2E0C94050384C261AE5
:1005A00026050985BBC14360D0B8140E0C5C04A9B4
:1005B0000503768385C1A0F0D864320F0683C0DFBF
:1005C000EA00019FE0A01038341615098442A150BA
:1005D00068342A0B093502869A414321D096E028D7
:1005E0006C3212CF05068635812A81C1D4609FE026
:1005F0008CA0A070C8742A0B04824121D0D8340A80
:1006000002F5050D854121D0E6F8286C0DBE0A19CA
:100610000684C2A150A8641E13045102278383C21A
:100620004200A190C87411A20C1E0A050285C1A146
:10063000C2F13074A0285C2A0F04874121D0985958
:100640003C141C260A070737028641C8E08160A0D7
:10065000D038142E130785800126813FC142E0D097
:10066000D85C2A165B050D7F82078216828341D5EE
:1006700080A0D0785BFC394813FC3899050A003219
:100680000000100002CCEAFB1B1E57E30D99E35D4E
:1006900030FB8E979FFBC4EBFEB2DB5FFEBB81DEBF
:1006A000D2EDFB55EB8E9AAF6BD0D96F1ACBF647D4
:1006B000817CC77034BBBF6108AC060503070B82A1
:1006C0004160505820785C1A0F028403C5422050C4
:1006D000783C1613088342215008042A03088341FA
:1006E00060F0783C0A0D028141A021B0407040E0EA
:1006F00040009052A821583070784C2E010086415D
:10070000A0A110D0584930242E06100C3D06000937
:100710000617872F02000285178140A0A14044E000
:1007200070085C360905070286C260B0682C36077F
:10073000098040E0451050686412190C80C0E190B7
:10074000283402070681C321D0C81C1A0D0181C0BC
:1007500060506831781406070380C0612000CFE242
:1007600090C84C05320800260D06830A05C2D00049
:10077000A0B0E85C321B0C17064804000308038590
:10078000C3202FF08B00704804021B0582C19C011E
:10079000A0D022A82060710828333C1C25FC1E0F25
:1007A00005778485C0E0C110E4E08110509758219E
:1007B000F84841BC2C243E08AA0880089E0A17036A
:1007C00086422050783426090182C1607047F8289B
:1007D000340E0271050A81C12150C823FC243E1544
:1007E0000180C321306833F413FC2426070A8640B5
:1007F000E02FF370480B6430002C3A0B065504369A
:1008000082000480C19940A150D84416060F1107F8
:10081000834160B028141442141E0DC0115E121DD5
:1008200008678C80BBC4419DE120C0E0ECE04640FD
:10083000703240210071F848510010403416085FB2
:10084000090C0782814160B05831401C2E07010716
:100850008382C32150D80C3A090177828342A0B029
:10086000282C0E090F80C0DE8081E0E1D0D834064C
:1008700018FD08FF0B018642E19037F9A85C1110C2
:100880000C0026110582C382A0A1A7D0B008541481
:10089000FA0A06A70415062E068E0B0283C1A06273
:1008A00000AD20EEF090080411A01A0C6C090A8427
:1008B00037C3C15FE1211067F870805078A83C16FB
:1008C0001AEC050983415FE0E043504410B0085939
:1008D000801C16110682C19FE121304849EC142684
:1008E000170A854320309778380C0E0A7B050F8352
:1008F0003C8183C1C0A190882C0E1CFF1309874244
:10090000E162A04FF31008581452041419B00C8679
:100910000C1E1613063E0281C160D0282884283C94
:10092000141E0CD405028107C2C115C0DDE0C5E16B
:10093000A160F0D0582038242A100F0D0228048618
:10094000415E0220505809342840441A010086C1F3
:1009500056A09DE0A050500020F82804321B0D80C6
:10096000904141A0304823F8133C1406070A07823F
:1009700082C32070169827783834121102814216EB
:10098000C09FE1A0D01058282405FE26030C85C284
:10099000E082C04FF2EF60B0A040781AE0142E1150
:1009A00005829B81824141A0D0584412110683C127
:1009B000A1A1E0A7C050262036F86802B41BBC21D4
:1009C00000340DFE1E030B07848203C341E0B061B7
:1009D000883824145E188C0E164E040E13028342BF
:1009E000E010E2F03168482C1A10880D0609830DDA
:1009F0008247048642A190A84C1A0F0284C119E1D3
:100A00001DE0E1E93050581BC0203C23F0141611C2
:100A10000C813FC4426030A8581C23FCD40E02FF56
:100A20000F0B340380C160B080705863F81439A68E
:100A30000E0C0F0B013D8282AD014081E19DC1E0B2
:100A400050250068334034160C520AFF1090045AA7
:100A50000AF00F078288010FC3C1E0D0582C047C34
:100A600008B4083616110D1F0385B1011B81C1E0C2
:100A7000B0C7F8680C0E1852070586405FE12130B8
:100A8000380C25DE0A0505853C01BFC2C0A190884F
:100A9000340C1211FE16130385C2E142E06FF3100D
:100AA0003831EC10004C109E08DE16010C84C0603A
:100AB00090A698282C381E14CA0A0B053F8283433F
:100AC00051E157C220D03188467888141A0B0808A3
:100AD0000384BBC696C10803C16050B28037805002
:100AE0006828183818FC3C09561A1306839C010321
:100AF000C4C120D0684C10A60A0508823FC240E15C
:100B000090A87406190282C1602F006FF0B0684C83
:100B100032021304FF130981C2A180808E00E69087
:100B20006EF1706833B830742C1A050615088542CA
:100B3000E010D37028306834220B0583415640A062
:100B4000A1704CD0EC1070582C16050E16820D8337
:100B500070081102820404C0A0C3206FF0EF00509F
:100B6000420882003869842C205E18780C000A182C
:100B70001E04700C7F090A3F0284C38200A0B046A5
:100B80008827F8381C32090D8625413C01BFC14336
:100B9000E070F8341A030C86C3206FF150181C1251
:100BA00007017F8A000D8641A0C8A08000F088124E
:100BB000A828003429040A0A200F048743A029200A
:100BC00070887438240E06F704E1080707015E896F
:100BD00077857F0D82C0CD611DE1A0C520CE006E5E
:100BE000F08610D0D0F87268246052E038113423B7
:100BF000FC14320502240281C160D0282C2A02FF95
:100C000005018241A0493050C8441A070D7F8481F4
:100C1000C3209018341A03047F8C0007FD000500E0
:100C20004B0000040002B359ACDADD6EB7FFFFFFE2
:100C30008709C060301020607058140A0501020452
:100C400007070D82090408040604070281C0C402D4
:100C500041E2E030381028100C20BC306C102C1011
:100C6000381840183C313C103820F830B0203C4156
:100C70008428A811C049F42288312C1880283830E3
:100C800004183C50383348500020F83BF880144991
:100C90007031081B7433FC2A0039B433BC208050F7
:100CA0003C5BFC39003BFC42FC33FC43BC53FFE0A3
:100CB000741810333C41C82BFC481020402A382BB4
:100CC0000C13C043FC303C33FC3BCC1BFC627C333C
:100CD000FC423C33FFF8782810334041CC29783A65
:100CE000082158197833C06838383C2B3C30381804
:100CF0003C28FC1AC0307C527843FFF87428102B33
:100D0000F8723C3BF8433C2A742BB81BFC687C34DB
:100D10000DF609FE0DDE1C6E08160C8C101E25FF4C
:100D2000D89F00010000000009000299CCE6755E22
:100D300064CE2399807331188FFFFFFFEED5666074
:100D4000144CCC02CDDD161480C060300808345439
:100D50000A050280C08280C1C12070381840140C7E
:100D60000208200C1C0816100010201800181E1075
:100D70001C12050282404500C200A030281C060853
:100D800051050482404800C1C0A0659041F0620056
:100D900040F042D0501824160D0682C183E10200B3
:100DA000C5E0A0D06020207898300010BC284048D2
:100DB00038304030B410383040141E0F0180C1C1AB
:100DC000C2C000E1107080305F0001000000000828
:100DD0000005FFFFFFF990002B34CFFFCCCCF3339D
:100DE000366B34CC2C1602030C000E0F08101501C4
:100DF0000004078F080907A2814060303078A820DE
:100E00007C1C101E2A0B05834160E0F150683C1EDB
:100E1000080F17058341A0A2F180F05062F091F80D
:100E2000220823E8C400606890804070C00020B1B0
:100E3000000200180100060005E170B85E2F178B54
:100E4000F4000510AC8442C04000C3E2203018100A
:100E50000018443834140C000C22081C16070382B6
:100E60000001844104010381034241203048083CD1
:100E700010381128103C3080103C182C183C3C02D3
:100E8000020F06000C1F0A1D090482804183C193D2
:100E9000C3414000C3E141E4C1C191C20780A060E9
:100EA000F08AE10AF0ECE0ECF10EE0CEF12FF40470
:100EB000F19017F067F860782823C023FC28B41B52
:100EC000C02BFC4030283C6BFC40F8203C53FC48D5
:100ED000041BBC538420BC184031FC38C0327C2237
:100EE0003C2ABC733C83BC60C30004004B0000057B
:100EF0000002FF80817FE012190F784C7603010514
:100F0000088100014041E201A0C1E0E06100A0E0F1
:100F1000A110703110480C04160A0904190E8184BE
:100F20000114450D431BC583C687C682C19441A5E4
:100F3000C29C441FC68B8383870443BB4EBFCD9C9A
:100F40000233048402BFC41802B781BFC28402C145
:100F50001DE10422A07047F8C4991078E0F8E7F882
:100F60009718A070E07885804070F7FC82E057F811
:100F700083D867F88808B81BF818C863F813FC63AF
:100F80000073FC807C682C1BFC397C20785034403A
:100F9000B8383873FF7A3848C820282C100009FE6A
:100FA00011782526159A281E143E389C25FE1DDE34
:100FB0003DFEF0B4000200C80000040006E97FFF17
:100FC000FE1D782424060218180E07010003078866
:100FD00080C0604000610130381C0E0421170300FE
:100FE000828140E060F0C0A0611061F0E3D08340F6
:100FF00060F0A4D0E0F0C1D0A0F0660080604100B5
:10100000A3E0A6A08200A7F0A47060E0A2E0A590F3
:101010006A00CB7060D0859041E0E440489068C1A0
:101020002DB0CBD1400221A1C0E0630166F0E90000
:10103000A930CBD042114FE070278074A820F8244B
:1010400018A568553031E8526048103C3070283C93
:10105000234423F8204018F821A42080307813BCC2
:1010600018401A3C3B6C427853FC3AF85B3838B570
:10107000020800320000080002E36960184A140206
:10108000C721806970900FFF1A85A5B1C03FFFFA94
:101090001253F8019C06050281402060E1104824AB
:1010A000160303824182022050181C0A030181406A
:1010B0004221E0D0582C1E090583C06020F0D020CA
:1010C000602000480B03BC08183E0ADD190380C0ED
:1010D000E0D00814181E1A0B0180C1A0F0580406B5
:1010E00008350D048141E090782C1A0B011A078312
:1010F000C060B07688280840340DDA0A0F0580C138
:10110000E0F04809082C09DA1444088216020A069D
:1011100011088718C0589D10C20D0681402030303C
:1011200070883C060F0680AE4104429FC1412050AA
:10113000583C0607023784818401416050183416F8
:10114000050558031402832EC140A0F02823CC20AB
:10115000941406090707826B028110018E8183C1F6
:10116000B44130024100E08060DA20CC809FE0A0F2
:10117000F05833442B7C38A810B41C1CE014BE0972
:10118000E01D2014F410E609FE64303A0703778D61
:1011900049828096C1419E21E050683BC0140E06F2
:1011A000DB040E0904809C0108810381C0E09028C3
:1011B00014193E0E0AFF11015F8382C150A09FE106
:1011C000206AB08A2069007038340A07060884084B
:1011D000031F8366025F84390283402065C042C0DA
:1011E00090516827F833D8315857F856D0280C1644
:1011F000090682C10C0089E0E0904400280C1A0521
:101200000680C120501823382C0A06FF044804E643
:1012100010C80EFF2C95060E1A300423170280C04A
:101220006050122898140E0E800500811B830A81DD
:101230002901410680C00159E083E0A0CFE06000B1
:10124000ADF0822043D0AB204CF070580BBC10ECBA
:101250001344107C1184141A04310B02820BC1B7A1
:1012600001418A20C400A09028241A090580C10CDD
:10127000012030780C19F60CBE0A0EA3050280C1BD
:1012800060D028140A0C0405018303C140E0D0217A
:1012900030481C0E05037F980892770B07912C832A
:1012A000802B410383A28140E060F1106834157CFB
:1012B00008762A0301808B049B014097C092E0844A
:1012C000415AE0A0C2004CF0CDE0701823C418C40D
:1012D000141040120904838381144110C20F013697
:1012E0000140E0307828742B601C0E044C0470130D
:1012F000036F91002F7F0F82188197C42101074649
:1013000004010F8723C58B0140A0D02820404C0A40
:10131000090381C0D86081E1E0C4E060E1200CA64F
:10132000E18EE1E8F062B169BDC00B208F000300DF
:101330001400000A0002FF80014020180C0600186B
:101340000ED9D9805030100C07FF0013055CDC84E7
:1013500041C0603018140A0703818C454120840184
:1013600090482C1820301E76090483C1E0F06210EA
:10137000682410380A0F088441A0B09050280068F3
:10138000183C1C1E0D0504028484014101E0C5E0E7
:10139000A1309100218861183168328070784378DB
:1013A000C1C82380B2E03070927022D840F966F84C
:1013B000F7D028140A030180BFFFBFFE01013FFFE1
:1013C000BFF980D60004008C0000040002FFEBB9D6
:1013D00037FBFDFF87C3E186C94060210400E1B00F
:1013E00020002070B818001040540A06201A0F126E
:1013F000140A2F0412040E104F0C010660121D1463
:101400008E05012083080880C0C1E093C31203D772
:10141000C381E3C0079FC442040BE38FC3A06000F5
:101420004FF280F1C130C2F041204A6141E06EE1EB
:1014300021008C4190180BC4104054060701710C18
:10144000810781BF8708063BFB21033BC3A4C43B44
:10145000830C848B4203843B81104184043B811BB9
:1014600085840123C6BB89BF8D00083F8884081787
:10147000071FC6B7C138413FC983C801420BC10429
:101480008129450782BC04840107454060301180F2
:1014900021103080580C0C1E0D3A2D1E387E1C0079
:1014A00010E8000400640000070002A85DF21FFFBE
:1014B000FC0201FF807FC0C0E01FFB9DCE02000D3B
:1014C000020407070681040482C140A06000610194
:1014D00020E0810120B07048240E0810082D0B0474
:1014E000824160705820B82878283C40B8140A041B
:1014F0000F0A30062E0432040F0A74082F050581E6
:1015000013C29842C0E0D038280010F43038141AC2
:101510000C80160F07061782821B84038304022A9D
:10152000C341A0C0E0438103106100506833904B79
:10153000FFFBFDB008183C23B8312C13F81BFC4B03
:10154000C0403C304023FC4419FFFDFE8D9E09FE47
:10155000202209760DFE26040F066008DE0CFF0C23
:10156000F008FF10F108FF120E0CFE12FFFEFF162E
:10157000EE06FF14EE08FF100F0AFF142F08FF12EB
:101580004B0419080E06FF1C0F0AFF1306823F8149
:1015900000190204006400000B0005E74437BEFA9E
:1015A000177AE700AD7FF5BF7FFDCFDFFFFFFFE6D6
:1015B00033198F3A0100FFC4242200B010002170BB
:1015C000980C0A06000504088780C0E0A000706837
:1015D000104028381C1C202A030682C1A0B050A04D
:1015E0002198208020F038400818D4184010781036
:1015F0003C4C1A030182018103C2840140A023D024
:101600007038441A0D0881C16050228021F02831C1
:101610003020B011801C0609018110412042A481B4
:10162000406130685148180019B8242A150A84848A
:101630000240E05040F8407828412810341412123B
:1016400020070184B7418001412120F06EB06F4135
:101650000F110FF1B048140C9A09FE24DE120C6E23
:10166000060E0CFF0A10090182074100812C019F20
:10167000C1C120CF00EC005046F8378077F855C83C
:10168000407878287C240E070881C18040A0B030C3
:10169000F82811B41930113C1C0E0450060904EF4F
:1016A0000C5F09048103C3BC01BBC12B4103424051
:1016B000A090A75028242A1422040006090630040A
:1016C0000018E4120018FF1F0300023D8207068184
:1016D00030C2415FE1C1C160E100D01150256856C0
:1016E000E8207031483700610027F8407871002801
:1016F0000AF414181E1E0A9F06A9050581C220D0EF
:1017000068411C108024186408A4120C4009043E8F
:10171000851B02814045E08C2151C1215068487CE5
:101720001C1120120D0184C2A150A078284C11FE7A
:1017300016100F041F070984C11F81A12E408EA11E
:101740000F314FF1F027F023583070581A04241944
:10175000FE1C1C09F808201D3E1162160CCE070461
:101760005F03770608027F847707520280AEC203C8
:10177000C3C143E1207038440DFC09DC083E0A0473
:101780006D06FE0860050228037786090264036E71
:1017900002078781410200A130A568206848141122
:1017A000DE0A030485429FE141C0A1490060018F28
:1017B000F200ED000200C800000E0002A940201F48
:1017C000FA0DCFFFFBCE7FFF7FFFFF6E01B5945870
:1017D000C280BFF71B5FFFA7C6C6566312198633C8
:1017E00009DBE750B059C15038080018E44C060531
:1017F000038140A041113018240E0B0683044103DD
:101800004241C001E0D068308834220E01070783CE
:10181000C241E12150A84C1C020A110784C2820077
:10182000E150900050F0285420400C7C1A13081905
:1018300002288884422110A850382C02010B8643CC
:1018400021B0D81178442E090C824121B0A8542827
:101850001E2E15040182170A86840103C3402170DD
:10186000D8583C641E0707818F811783B0843804E1
:101870003FFFBFC2421FE3214FF04BF090783BBCCB
:101880004880141D98081E0DBE10200A0F078541C0
:10189000E16FF0E200A100400070A7A0228832E8CA
:1018A00027F8678877F8B090010400A000000700CF
:1018B00002E050201E0C0403C1C080783C1C0C04C4
:1018C000828140905006E96030281C0E0702808318
:1018D00043C041A0C240A040E0B03824101A103EDE
:1018E000141C0E082E09058283C1C181A0A0C2F07C
:1018F0007010102080407031F840F84078482880FF
:10190000217430001C147E0E0211064E042E083F76
:10191000061F068A060E09011F058002C103859075
:1019200041C1474081C22000D0403040F106806272
:10193000F18330A7F0EE10E03049110EE0CE01281F
:10194000406EF229F09017805270281880283013CA
:10195000FC240CE2181E11BE087E08400DDE15E0C6
:10196000087E1A06F00F01810BC23BC20381BBC582
:10197000B80582818441BB8487418F02840308C2F9
:101980003B8584C18015405DE29620D201006081D4
:10199000C1560081A103E141C0D801202630B060CA
:1019A0006827F8480BC41840183818FC220C283C4B
:1019B0001C144010BA18000E0A3F070108832702C2
:1019C00017041F837F040682070468870582070BBC
:1019D000208382BBC6034100C103C41A018BC60C1D
:1019E0008204418344C0E0603080E0C7006FF12E84
:1019F000F080E088F08EF122F0A2D04DF080E04738
:101A0000704C006EE0CC0040F0EDD04CF10EE0A543
:101A10000050107048040DE0141C08DE15DE10782C
:101A200009601E0AEF1B0581368100023B033F411E
:101A30008181B78384018181BAC40A43800200FC9A
:101A40000208004B00000900029F4FEA12783C1F79
:101A500041208076F771BC753A1DB4BA4D3BFDFE4E
:101A6000FD32DD900D8380C0A030281404100A06DA
:101A70002B0B02824160B058140876220506814182
:101A800060F0782840440A0B058341E050519040B3
:101A9000806830001410201A0400050582C1E0B0EF
:101AA0005820C4240A09068313C1140104020381C7
:101AB00040A0411070214032D822E021F03820347B
:101AC0001A2C189C11342C160C3F0A2B040E043FC0
:101AD000060F0821044D04360501480513822D85A3
:101AE000070284420BE0C4E0C2A0A0902844001E7C
:101AF00008C20C8C16041E049F0A060A1D04000866
:101B0000FF10CE0EFF907808FF345C0CFF0C6B0AC0
:101B10000F04FF0C10069904FF0EC60811064D06AF
:101B20002604FE0C4C065B043004FF066404BA086D
:101B30001004DF060F04FE0C0706FF069D06A40D29
:101B4000027FBE1009588622077F874903278461D8
:101B5000022802588782419A60C9C241C087A0C149
:101B6000E24200C9A08B81C400C66081E1C0009F31
:101B7000E103C1D5A09FC19FE09F010420C3E0DF26
:101B8000E09580C1209FC103C0C7E0DFC1C3A09F13
:101B9000EA20904230281BFC51581BBC43FC33BC4C
:101BA00039F8190C141A0A1F08C0044F0451060E04
:101BB000130402822E875083830EC3A341AAC1BBA4
:101BC000841F4107C183C4AAC1128135829F842426
:101BD00081BC01B802028191023FC1B3818F418073
:101BE0000187823EC30001BFC740DBE1DFE1E06166
:101BF00010AFF06CF041006FF110407837F952F0FF
:101C000037F8A1E837F8A070415825F066383078E9
:101C10002831BC23742AFC1BC0133C1BFC3B001B5B
:101C2000BC3BFC18B410BC31F0203812C02B801320
:101C3000B410A419501BFC212818A8191813FC482B
:101C4000182BFC7B7833FC403832C823BC23FC546F
:101C50001C42083C19FE248810C011FE12090434ED
:101C600005708328840708813FC40B418681418227
:101C70002081E1A02D008F0047D10FE060F121F01D
:101C8000450060F0EDF065A068F0908842A410680F
:101C9000201C137C183C13F8301C1BFC18A8103CAB
:101CA00020001BFC7B7C3BFC3402060F0CFF05076D
:101CB00083BBC4BFC230013B42BFC504054160EFD6
:101CC000F04A31106280449032F85678227020F049
:101CD000920030E0669056A021E898283C18CC137A
:101CE000C443CC18384C16080D08FF0A8C0821068E
:101CF000FF0C8B081904FF103F06FFBA7D08FF1286
:101D0000ED04FE06FF0EFC06BE04940627045C0AE2
:101D10003E06EE0C1A044D0E700899042B040E05B5
:101D20000514025686180208837F8878836F037F24
:101D3000860703020377827F84400377047F88004D
:101D4000070702AB041A00320000060002FFFFFB87
:101D5000DDEB5C03FFBD04820582088380800408FC
:101D600042820140804101E18200A0400040E10048
:101D7000F0602080F123E160F05030004078881C52
:101D80000E0402080F12000A3D102F0C41084908EA
:101D90007F0C1004030C0C10050A9F0E3A06BF16A8
:101DA000530D028100C2800383C74120904020650B
:101DB000F0C7FC440837F896A037F8B13857F876E2
:101DC0009897789470B3086478F578F6D020005727
:101DD0007977FEB07847F8800057F8907870005116
:101DE000E8817867F093F86080201860608028545C
:101DF000F871D035F8B29867FFA40837F896A03785
:101E0000F8B13857F8769897789470B3086478F5F5
:101E100078F6D02000577977FEB07847F8800057E1
:101E2000F89078700051E8817867F093F86080202E
:101E3000186060802854F871D035F8B29867FFA414
:101E40000837F896A037F8B13857F876989778940D
:101E500070B3086478F578F6D02000577977FEB033
:101E60007847F8800057F89078700051E8817867DB
:101E7000F093F8608020186060802854F871D035A5
:101E8000F8B29867FFA40837F896A037F8B138572A
:101E9000F8769897789470B3086478F578F6D0203F
:101EA00000577977FEB07847F8800057F89078703F
:101EB0000051E8817867F093F860802018606080B6
:101EC0002854F871D035F8B29867FAD80414041081
:101ED0000610201C2418004CC6097C18DA12020EC9
:101EE0000E1006C0048508EF0CD0060F060B041078
:101EF000060F0CEE0CF00CEF1C100CD00E0006EFD1
:101F0000140F0E1E16DA06000AEF2EFF3E0040DE0A
:101F10000C0E1A100A05060F12D3060506FF0CAAAE
:101F20000CEF150177935F8768068140A0904018F9
:101F300055E87078D8002C12FC1B8050026170109C
:101F40001C59B01820583C7A584820283C737420FB
:101F500034238023B4483C24060703080A0682077A
:101F60008F1C8600052C08070C007E820247410268
:101F700001C101C0E182E217E080A25C20992180CA
:101F8000C0DFE0C30184012070380C0602EA0A05B4
:101F9000060C0500078500050702804001E2C6C067
:101FA000C1E3C72100014FE201C3001B20800040B4
:101FB000A1A96140616080ECE14EF06FE160F050FA
:101FC000181C0DDE2E0600040F1AFFC2CE0E090EDD
:101FD000DF1407181710D80C050AA104890C06068F
:101FE000BF06180C2008CD04F00AB40A0C0500073F
:101FF000857F871302078B1B03078F7FDF002D82EE
:1020000000010286A58501858203B3853BC1BF859A
:1020100083C14060703778B81800103C6BFF0B38F4
:1020200038243B7C501C605C436030142A841224AA
:1020300030181AFC18603080233413C02AD028309E
:1020400014001E15FE1C4C081E2C6C0C1E3DFF7C43
:1020500000B60800040A1A96140616080ECE14EFED
:1020600006FE160F050181C0DDE2E0600040F1AF21
:10207000FC2CE0E090EDF1407181710D80C050AA20
:10208000104890C0606BF06180C2008CD04F00ABF4
:1020900040A0C050007857F871302078B1B0307847
:1020A000F7FDF002D8200010286A58501858203B3D
:1020B0003853BC1BF8583C14060703778B8180010A
:1020C00003C6BFF0B3838243B7C501C605C4360358
:1020D0000142A84122430181AFC186030802334176
:1020E0003C02AD0283014001E15FE1C4C081E2C670
:1020F000C0C1E3DFF7C00B60800040A1A96140616F
:102100006080ECE14EF06FE160F050181C0DDE2EA7
:102110000600040F1AFFC2CE0E090EDF14071817AF
:1021200010D80C050AA104890C0606BF06180C205D
:1021300008CD04F00AB40A0C050007857F87130256
:10214000078B1B03078F7FB05F88630D63900406C6
:102150002B0A07935F065F865F0C67837082078A8E
:102160007F83078D5FB200514B034504070B0805C1
:10217000028307895E82808141C080411F80800187
:1021800003E1C160C2415F209F80C580C2009DC243
:1021900001C0DBC0E090401857707078D8002C1454
:1021A00002000F04DE8F0501040184080709067F81
:1021B000936687788680C0DFE241809A60DFE21F05
:1021C000C16020B061006FF0E2F0EFF082108FA0EC
:1021D000402040F08340E0E0E10081F0C800A1E150
:1021E000D008040800195E20140C1C281E3E0904A7
:1021F0008201034020009C0001000000000900054E
:10220000EB7FFAD7BD6DEEA58CA56739D9C98D8E48
:10221000635AAD56A314A8C402010180C043E14132
:10222000016030281C102010101A03038203C3021F
:10223000030BC701C1180385C38641870189C441C7
:10224000209031E0317068240E0B0582C0C00089F7
:10225000C141C0A0502810401C120C6F080E0E6F18
:1022600009018303C141E03038180C141040085CA8
:102270000A07058083C1154194C1C12030883024EC
:102280001870142018089E080E0800102E095E14FD
:10229000FC0C7809001D3C181A146E010300640040
:1022A00000060005A45835178CC7E351C8FC00018F
:1022B0000381404000C382203018140C0008222003
:1022C0001C0E09048240E04100B018140A07048281
:1022D000C142010460C3C101E0E04230A2E0D04845
:1022E0001C1084083E1820081C0E0B0508022E85C1
:1022F000300480C06090436820803810E8100C10D3
:10230000CC1C08200E0503070638048140A020F0ED
:10231000417060F060907013E02078207038221CCB
:10232000183818C4103C10CC112C200811701370F0
:1023300020481030180C141060104C083A15C61CB8
:10234000120DDC1CC011220C3821FE19B80C1E190C
:10235000FE142015FE220696062E101E041206EF0D
:102360000C0E08F106CE08DE060E07058284010376
:10237000C1BC0340A04A006E8080105010A02550C0
:1023800057F8807034F847F87078377030702678D6
:10239000322026F857F07170407820E057E8307806
:1023A000329820E04080629041585068759022A891
:1023B000307061C8268047784070578040805078E0
:1023C000E6784178607895502128210037F8781A0E
:1023D0005811D01BFC383814160A9B08EF06DA0691
:1023E000F0060F060806FF0A35040F04BA06FF06BA
:1023F000EF0ADE041D04FF082A0500800381BC816A
:10240000BB8418C19AC1BB450381400A2081810069
:1024100071000200FA0000050002E67339900B37E4
:1024200030100BFE202D0180C041A341E2C1C1024A
:102430002241C1C221C0E0A0400050300820797084
:10244000804810382800140A043D0D041005078642
:1024500080C020810070482410580C0C08000C82A9
:10246000141E083E211E287E190E0D602836118488
:10247000340081E045FFC1F411FE4C7E143E213E44
:10248000281C15FA344221D258D400040050000010
:102490000500028757A4132D4CAB05D3A7EF7DB8D9
:1024A000938E5808001034540A06000502088780ED
:1024B000C0E080009030805070680C1202100A2C2E
:1024C000060F05028240A07020F0400050682818D6
:1024D00080183C3800203C1970208C303C1C0604CD
:1024E000110F024204458300077EE539067F097F0C
:1024F000854E8307047F8708057F93090277837FD2
:1025000083803FC58B823FCE9B838383A343BFAE33
:102510001706A4829F430382BB4104043FC2BBC190
:1025200037820781BFC638023FC283C4BB8403C958
:102530003B8383C43FF898C1034620413F842C422B
:102540003FC18403C05DE1D3C19FE481E0A0504757
:10255000F866F0981C09DC34C6101E402026046181
:1025600008FE120E06170206006400002C0002C8C6
:1025700040251C480443C700817760102DD40221F8
:10258000F9B359BF7A3D1FAA0100EF40201B680430
:1025900043CB00817F347A3FD59ACDEB80403BF02E
:1025A00008073A0102EF40205EC80403CB008076A2
:1025B000E0100E5C0205BC80443C3008077201004C
:1025C000EA40201B1804436F00887320102C2C4213
:1025D0006B988F50721189E526E188E5F4BAD90D20
:1025E00036CEA778C76C37BC6D4EE38377C968EFEA
:1025F000194D26CF81C8EDF7BBFE6F379B1FA5D9BC
:102600002182C0400092A2A030281C120A1013019F
:102610008141A0F0884C282022030B864361D0F82A
:10262000803C4C46251289C522A0F13168BC5E3140
:10263000198D100546E211C070A804023B1E8FC719
:1026400041C2A012090C8A400D1520078390044353
:10265000C8E4921078390C92461D0B2490C864B2DD
:102660006934964321920841C824F22000893840F9
:102670001482512194CA8001253219403C1CAC1EA1
:10268000265630080014FDF2EE14FE06FF1C0F065D
:10269000FF15257F8392BFEB3F7237453F41BB4516
:1026A000BFC204063FF6A902000120054060503871
:1026B0002415842A050683C22130A718985C321B92
:1026C0000E87C401E2623128944E291507898B4593
:1026D000E2F188CC68802A37108E0385402011D81B
:1026E000F47E3A0E15006F837F8B07837F8A908379
:1026F000C1C85FF6944080009202A030281C120AE4
:10270000C015028341E1109853844C2E190D874364
:10271000E200F13118944A27148A83C4C5A2F178E3
:10272000C465E42A031B884701C2A01208EC7A3F63
:102730001D7F8B70027F8C07827F8992BFC1C95F2A
:10274000F71440800081C2E050382415802A050625
:1027500083C22130A708985C321B0E87C401E26255
:102760003128944E291507898B45E2F188CBC84C56
:1027700082031B884701C260120914763D1F8E83B5
:1027800084BFFB80440308004B0000110002864216
:10279000A0A0505BF86C200A0B8157826DB4504AA0
:1027A000ED7A09D3F54120922B24124D9492E762E1
:1027B000308B66BA81CB8B413D5BC937D64904B4B7
:1027C000550742A030181406020E170381C0E0809E
:1027D000E110281038140C3E260303828041408308
:1027E000C22030500021F8980C160D078341C1C259
:1027F00020501844160D06808B83C0A05088341AD0
:1028000011071E8983C220F08834081E0A030200C3
:102810000280C043C0C9812030984C2615018587AD
:10282000811302C0A130C84C32190885C361A6B01B
:10283000B01814321D0987C36170F260780C061D50
:102840000F87C2E1F0B260308058843E1B0F879E34
:102850008408010001409D0282A16190C863FC5080
:10286000382405DE241E0E04FF121E090382C14116
:10287000E2E04FF063E170683BFC387824060AFF21
:10288000100F0908834201C261D0183C2211067F53
:10289000838542A15018140A05010F027F84078323
:1028A00084C26150184134283C1C0A123F050B8633
:1028B000AB020BC2C3212F2044D0A2C050980C06FB
:1028C0001F0F87C2CBA1C200E1F0D87A6C408023F1
:1028D000AC13EC62C0183FD43A1C0F16D304D606D2
:1028E0000F70E104E4060F470180C091C0C362602D
:1028F00070380840583C140E040F190582C0C403F8
:1029000020B0582880641E0F060F8B814060D0587D
:1029100008805C0A11068403C641A110883C05FEAC
:102920002A022005018140A04D6061306510508869
:102930000C295E081E1E030D858FC142604F30F0CA
:10294000287C2E1F09860BC4402050B87C3E1F01F6
:102950007283290680C3E1B0F070A803CC10783BE5
:10296000FC1BF040001411DE08202DFE0E07028132
:1029700003C440A07050082100980BFC1B8010403D
:102980004C1E0D077882180980C1A0D0567820808F
:10299000983C220D06841484C0A05068441E110780
:1029A000208A808801A601000111C24043C0A11005
:1029B000B80C29821E030186C36170886432130C2F
:1029C000848D42C0A0F0F85C361F09874305E14AB8
:1029D00040A170F85C3E1F0E6408814061F0F86C05
:1029E0003E20B614F504000408050A85428D408394
:1029F0002201E1207031C88078681A78383C2C16A2
:102A00000B03100C82C160A20190783C183E2E0589
:102A10000183416022017028441A100F1906844274
:102A200020E51182005017F8628868440614FF0AF6
:102A3000B20B0D85C3218FF0C4108F005097F86042
:102A40007847F8287B1438C4243E1B0F308C813F14
:102A5000C2038242400103A1C1FFC1FC02612050B8
:102A6000180C2A150A098780C060703078B8140CD9
:102A70001E32030382C141E2E050582C147C320D17
:102A800007838785C060B0680C081E2A110684037E
:102A9000854060F08844181E1A03028140A021E09E
:102AA00043D0EAB050A80C209A260509864321900D
:102AB000B86AB04406050C84C3E170F268980C064D
:102AC0001F0F87C2CBA2E1F0D87B686BAC103C40F3
:102AD000500001000000000600069E65A0150E478C
:102AE000720100DA07CB404000C1A2A050381C0E92
:102AF00004100E0D0800040F0C0E0E0F102B080012
:102B0000121E043A0A180C2910090418040F147331
:102B1000080F1504824143E087E2608100A5F1A718
:102B2000F209F1EBF20DF1A0DF000600C80000048D
:102B30000002DFEFF7F7FBFDFE8140A00688C060D2
:102B40002091A0F1E172E0F2E0707010002048D016
:102B5000287002113891B8F2B8B2E874FB1000F88E
:102B6000140812341E3C2E5C1E5C0E0E0400040978
:102B70001A050E00422712371E57165D0E9F62007F
:102B80001F0381824683C785CB83CB81C1C0C00030
:102B9000812340A1C00844E246E3CAE2CBA1D3ECC2
:102BA0005FEF4FE3C1E456E6DFF0C1214D63D16230
:102BB000D3E6DFE460502048D078F0B8D028304821
:102BC000B07910B8B0795001B50831B895F850789F
:102BD000D1185058316870789428577891A8707837
:102BE00097F9180C0412341E3C2E340A0C122C1EB9
:102BF000442E2C1E54006D4A0C6E25FE141E3446C5
:102C000014160C5A1C1E250A15DE246A1C1E2438B4
:102C1000000200F40100030002E070380050501080
:102C200007581000303C4044180C103C5848203CD9
:102C300040CC287CC8FC884019BCB803F8008380CD
:102C4000203C6AB062EC787C80FC88847000A8ED3F
:102C50000B1A00280000200002FFFFFFFC6E371B4C
:102C6000198CC65EEF77BD2E974BE7F3F9E53299E5
:102C7000485C1484340A0100FBED76B0880403AC90
:102C80000B056BB5FFFEFF78442211FF94CA6B540D
:102C9000AA57FEF77BFB87417DFEF1088443FFE7DF
:102CA000F3D0A8542FFD6AB5399CCE6432190FFFBA
:102CB000ADD6CA4A653FFF7FBE31188C40400160E7
:102CC000503824160C0B0C0D05072302844261506A
:102CD000A8542C1C0E0A0D070886436150A8743CAA
:102CE0003A0E21088840E0D0F88C2A150D8907811A
:102CF000C4A11088140603138542A290904038ACFA
:102D00005A1016050B8A0F0145A110480C060D0834
:102D10008440E0317258289C0630190715844220FF
:102D200083C071980C06340F070183C22370E854E6
:102D30002A230F80C0A11088283C140CF2123901FC
:102D40008341E11168A83C1456244B051D8244A21E
:102D500001E0B018F0F01475220E200E09018C8FDE
:102D6000014622D168DC118015100A15118C8003F0
:102D7000C06160E0400150189C380031FA362A6F7B
:102D800006FD1518843F4683C13F4603C13F4646B2
:102D9000210FD1B18843F4687C13F4587C13F46894
:102DA0003C13F4603C13F4603C13F4603C13F46493
:102DB0001230FD1B190E82000D7E8D7F847E8A7F6E
:102DC000827E8C39827E8C3A827E8C892D013F45B1
:102DD000C1202FD111F6E8307827E8C8D84813F47D
:102DE0005C5A10FD0B1587C19FA12091B7E898FB95
:102DF000F414120AFD1B0480BF46C1202FD1B0304D
:102E00007837E8A7FA27E8C8AC05FA3621047E8DA2
:102E100008827E8C893F4745610FD043C06FD0D078
:102E20002843F46C4210FD1D167E8E8C3F46C22155
:102E30000FD1B07843F46C0A10FD1B01823F46BFEE
:102E4000D0C0E06FD170180BF46C541E09FA0E322A
:102E50006D0400071280BF46BF813F4642206FD1FC
:102E6000B0882BF46C5A2AFD1B0280C2A23018785D
:102E70009C1BF42C0602FD071B7E8882C05FA363A7
:102E800066204FD17088247E20FD1718893F873F28
:102E9000D0415EA11FA1DFE09FA320EFD1D1B843B5
:102EA000F46C6E10FD1A0F06FD160F04FD191B843D
:102EB0003F46C6E110F13847E878DC22030683BFBD
:102EC0004546E10FD1B1B7E8E83C220EFD19128C5E
:102ED0003FD7BCC1BF44C0602FD1B0407827E8B015
:102EE0007827E8C82455FA3609037E8D82469FA2CA
:102EF000C9E0A36FD1B0483BF46C1224FD1B040F52
:102F0000037E8A82405FA28DE0E02FD1B0580BFD96
:102F10008BF45BFC13F464060CFD1B028B3F46C66E
:102F2000C0E09FA2C5009FA32111B7E8D84449FA89
:102F30003611187E8D84441FA7609087E8D8AA8830
:102F400013F45C062AFF5EFD1B01833F46C6140096
:102F50009FA2E100F04FD18ED08FD13044E877E8C6
:102F600068A83C13F45AF41BF45B3423F454181E81
:102F70000DFA083E108C0A0E8104FD17088817C34D
:102F80000F013F41A001BF4540605127FB27E8A842
:102F900029881BF450002BF4482C13F4641A02FD0A
:102FA0001A8A04FD18D704FD190180BF468BC13F62
:102FB0004603C13F4613C1BF45C4A08FD1A6A04F51
:102FC000D191B883FD83F464160CFD3A0D04FD190C
:102FD00006823F46A0C13F4640602FD1B0180BF497
:102FE000683C13F4603C13F464047609FA2E251F40
:102FF0007E8307837E8584421FA2E3F108DC49FEBD
:10300000BDFA34E009FA3231067E8D84459FA36211
:1030100011F7E8E833F46C0602FD1A2104FD1800EC
:1030200006FD161F0CFD1112813F46A0413F46428E
:103030001FA3A05017FB67E8680C060F107E8B4E8D
:10304000847E8A4E847E8A07847E8A17848C3F44DD
:1030500083C247DFA241E11FA681E11FA281E11DDA
:1030600080DFA18DE11FA2A2B017E878DBF4240570
:10307000FEBE26FE1D017F0E80BF8703C14550E0C6
:103080009FC201E09FC301E0A31088FB78483C1376
:10309000F8603C13F8603C13F8603C13F861FC1BCB
:1030A000F8583C1BF85C05FC1A3F168F8B823FC713
:1030B000C05FC3A02FE2800050682C120A86090767
:1030C00088334141A3060091808828D9C4140A2C72
:1030D000710D16814081E0A2B1B3D82834060D04E9
:1030E0008847E05030782818381110240A0D0182E2
:1030F00083C1462111B4C82000515828247E1112E2
:103100007009078283C22300F191284440F4101E05
:103110001E05088441C200E2AD2043F06F00710833
:103120009412251F84422050447830803000482477
:103130005625128C414F20E251B8846C5C09FE3E4A
:1031400032FF1D0A7F8D8743910260D05824160DEF
:1031500001824560307668383460C01230BA04713C
:1031600007028B1C4320812441C6CF60A0D01834B5
:103170001221108440C1E0A060E044408BA0505078
:103180007828D42237152A858445A2A4F051B2307C
:10319000200058B4089E0E0F088C03C301C103C160
:1031A00044A1110780317830F842302838401C564D
:1031B0002448047F06F0051089412251F7983078A1
:1031C00038A840100024123112894620A790712897
:1031D000FC5A3F12813FD7C554E18000E0D058240B
:1031E0001611108245602B1040D051831068924414
:1031F0001C0605167E858900C103C1254142209029
:10320000680C1A031584422060F05030702220456B
:10321000D028283C14697009BE1221088B4549E06A
:10322000A364604DF09088B384241E10F904000557
:103230001B038307828942220F0070182978103CF3
:103240001918141C200C760A366B050480BC014446
:10325000225048917C193014120315080200028094
:10326000C0609188944A31053C838947E211B7FBDD
:1032700018AA9C20002C18FC0A11108245602B1003
:1032800040D05183104842E811C41C0A2C0B09029B
:1032900089288103C1254142209064483844220690
:1032A0000F050307026F821382844220A0F051A50C
:1032B000C0207828DC6221088B31412D01449FE039
:1032C000C880A2CE109077C8317828D81C183C143A
:1032D0004A111078028441104083E108C0A0F062D6
:1032E0007838392011FC1BC01442245F0A3C047753
:1032F000041005087C83824622512038380C0A24A9
:10330000FF61017F828AA9C10003C2DE60E210482A
:10331000A9D41334141A310107837A82488380C0F8
:10332000A2D0807828940A24A2040F04950508816D
:10333000461120E11088183C140D300A080F06A130
:10334000050507828D2E0144A31088DC6221088BBD
:103350004549E0A3646041F0516844222CE109072B
:103360007C82828BC146C0E081E0E25088840A2AD8
:103370000F05052B0207832302839BC1411160A324
:1033800066B050480BC0103C206010F011DC1412E5
:103390001050050380810144A251882AF81409FEC7
:1033A000C203017F828AC55FE1E150A85BC41C4271
:1033B00009153A828203C1464E208000E24910700E
:1033C000181436240F05128144944081E0A2B1B84C
:1033D0004C220491071584422060F05038447E103E
:1033E000E104A1090507828D420580A31088DC62F3
:1033F00021088B4549E0A37088D07C1C5A11088BAA
:10340000384241CB00A0A2F051B84462020F0656E8
:10341000051F8A83C14142C081E0C8C0DE2120F07F
:1034200088DC54FE0E08E4045F0C6F07015B8382A6
:1034300046206040712894603809FEBDF211FE08F4
:103440000E10000A1223050B7883884122A75050E2
:10345000486C2A151938820003892441C2A150D82A
:10346000903C144A04AA050207838A42611024880A
:1034700038AA442C2A171F708350848283C144C504
:1034800080E31088DC6221088B4549E0A03018D029
:103490007C1C5A11088B4089E0C4E105E0A37088C8
:1034A000C4041E0E0D078447E2A0F05057C83078C0
:1034B00028801C193C1C1E111B8A83C142220E400D
:1034C00045F0D04278282419680A0918818101C47E
:1034D000A251882BFD7C0E0A4007017F828AC541DC
:1034E00000E110884894142DE20E21048A9D414386
:1034F00021B0A85464E208000E25018DC3E230A873
:10350000543624D407028942211028DC4E150A8A39
:10351000426110248838AC2211038D8F01C7DC2052
:10352000DB2141E0A262C07188446E31108445A263
:10353000B1B258280C683E0E2D088445A05018DC06
:10354000461F0F138317828DC22310180C6E39018A
:103550008341E111F8A83C1415F20E3704894400A8
:10356000E0C9E0E0F088DC56369707058083C20D9D
:10357000C140E371083C11800E0918818101C4A289
:103580004FF5F0281C0E0A4007017F828AC55FE0D4
:10359000E110884B101BC41C4208D3050886436108
:1035A0004B5040F07088444A070687C46150A86CAD
:1035B00049A80E051284422030189C2A151484C292
:1035C00020491062D0501858F01C7DC20D42122EB6
:1035D0000E051316038C4223718884222C3C051996
:1035E00080C06341F0716844222D028542A23018E8
:1035F000789C14145E0A37088C406150A8E4060DCC
:103600001B8447E2A0F05050B0285476091288017C
:10361000C13C4241E111B8EA141C420B0107841B72
:10362000828C45A2D1B823001C12310302037FAF64
:1036300080C06050382414800E02FF05158AC0A097
:10364000E600709620378833D02000286434700A52
:103650001E0F061105038343D880A1B126A038149C
:103660004A110280C06270A854521308812441C5D7
:103670006250180C2E283C051F7083508281C06256
:10368000E4B051316038C422371888410780E330F4
:10369000180C683E0E2D088446E1D0A854462B0F26
:1036A0008338810BC146CF21239018341E111F8A05
:1036B00083C14161114854523B04892181415E21FB
:1036C00020F0A854750A120B0107848142A23188A8
:1036D000B45A3704600382462070180C2A22FF5F18
:1036E00001520282414800E02FF040D05073003474
:1036F00038385BC414060AF5090C868E8143C1E094
:10370000A0510844420706620386C49A80E2412021
:1037100050180C4E150A8A426110248828842225EC
:103720000180C2C1C0A1716708382422110380C57D
:10373000C960A262C07188446E1108820F01C66020
:103740003018D07C1C5A0F088DC3A150A88C3E03A2
:103750000271021782819E42472030683C222D155B
:1037600007828AC4A28F20504894403C09E20E3C54
:103770003C051D488388416020F06E005118C45AF2
:103780002D1B823001C1231031E0288BFD7BCC142E
:103790000E0905200380BFC1034141CC00D0E0E108
:1037A0007180702828341C22190D1E028783C140A5
:1037B000A21088840E0CC4070D894041E0A25088F5
:1037C000440A030189BC8142611028C4062B168477
:1037D00044A030185AD4142E2CE105018342211044
:1037E000380C5C960A26AE05120F8284422083C0F4
:1037F00071980C06341F070183C22370E5A0287C52
:103800000604E2040F05033C848E4060D078445ADD
:103810002A0F05158912C147609128807811BC1CB8
:1038200078780A3A91071082C041E0DC40A23188E2
:10383000B45A37046003822201C2A22FF130B7F8D4
:10384000E89BFC70D3020800140000120002FFFF86
:10385000FFFEFF7FBF1F8FC7EBF5FAFB85C2E011AC
:1038600005DFEFF7F7FBFDFD028140B0582C19FC96
:10387000FE7EA150A84824120E7F3F9F108844303E
:10388000180C04C2613080C0A0704808005C160D9E
:103890000683838540E0D06830801412100F0C0E30
:1038A000050684C221414080F0E00080F1E440C080
:1038B000F110B83C10440C1E20000CA8081E6E0A23
:1038C0002F050C8683C4C38A00E0504088884C10C2
:1038D000C8120E22148509040789818C82080441CC
:1038E00060494090C0E8B83C102814001E130684BC
:1038F000834542DD40A1E4306FF15068440A210D58
:103900008837C5980143C4214F22218FF1CCC06F65
:10391000F190A85425A009FE30F0081E3216FF1BB6
:103920000A7F8E29067F898640E0EFF1CA508FF129
:103930002F10AFF110D820FC20D0200034089C0AB2
:103940001E1608000B0C82424D0217E21B60A16498
:1039500090AAF0D0C120208055E0C078B87C083E05
:103960003A09028704813B4543E0D09813FC6C1A66
:103970000EFF185208FF15097F8E86B2033FC4C29E
:10398000610FF1CB904FF150687C2E1CFB140006A8
:1039900053050E86C3156155E1217081E82230453B
:1039A000F8A078235862B068442A1F0A1A045E0CF3
:1039B000078C3D0507898183C743E071009027F894
:1039C000D823FC69DC1BFC541A16FF1CA30CFF1146
:1039D0001052057F8A3A057F88834316A140024A28
:1039E00060E090A778A88C1E090F2C884F878883E9
:1039F000C743E0F0285C41FE2E1E7205106F8D5605
:103A000085070929857F8A5604178A87C46230870B
:103A1000F8E863FC6C3E08FF19065B067F887F05AB
:103A20007F8988C0DDA15FE26150C81BFC70D01C9B
:103A300020AE101E1A210285C1A0C2510B80603039
:103A40004DB08AF141F046C0A990F038643E146C44
:103A500006BD1621060E150A778E5E84760B84420B
:103A6000204FF3B06869881BFC4C361CFF1A5108C4
:103A7000FF150B5A067F888643A170A120667888BF
:103A80004948183C52D8142E1F0908873283848174
:103A9000011A42BBC4A201AFC5C120F0B81B3C64EF
:103AA0003E0D060803668B4703070A3C037F8C55CF
:103AB00004768A864146209FE313609FE2E0D0D5DA
:103AC0003047F885A867F8875077F87852D4140EF5
:103AD00020EC123B0AB708000EB60487050B860ED1
:103AE000838D81C1614AC0CAF150A078E829D813FA
:103AF0003C642A190D883FC743C42081E2C3E3A177
:103B0000AFF1F0828837F8B86C24220DFE2A0D043C
:103B10007F8C83425B611FE21481DFE1C5A080E7F7
:103B2000023B00140000090002E27138984C261292
:103B3000A351A882C145A2D168F65BFF00FFFA7FBE
:103B4000FFFFFC020200190280840640A070180CDE
:103B500010002A060F630281C0E0702058581C0E26
:103B60000B0307041184078381C14120C661607083
:103B700031A8707D03A033D82078707043D867FFD8
:103B8000F7FFF7FFF7FFF7FFF7FFF7FFF7FFF7FA8A
:103B900018300053FFFBFFFB7C183C7BFFFBFFF85A
:103BA0003C7BFFFBFE7C1C0029FE8C1E39FFFDFFC9
:103BB00001BE3E0E0014FF4E0B0AFFFEFF6AEF3EF1
:103BC0001F3CFF280F0EFFFEFF66EF3C1F1EFF4845
:103BD0000F0AFFFEFF6A0F1ECB06000EFF0E1B0A28
:103BE000FF520F1EFFB3087F8F080C7F83678E770D
:103BF0009084000507C93C023BC3BFC386C2BFD443
:103C000083C7BFF5BBC7A2C18003BBC93FCA3BC3C3
:103C1000BFC38EC2BFC487C2BFD483C7BFEDBBCFF3
:103C200087CF3FCA03C3BFC3B3C787C2BFD483C74D
:103C3000BFEDBBCF07C7BFD23BCF87CF83CF3FEE10
:103C400003C7AAC18003BFC386C2BFD4BBCF87CF7F
:103C5000BFFD83C73C023BC3BFC386C2BFD4BBCF3B
:103C600087CF3FDE0D438001BFDBBBC3BFC3ABC209
:103C7000BFC4B3CF83CF8FCF3FE603C7BFD983C3C2
:103C8000BFC3B3D703D00FC73FEE03C7BFD9BBCF66
:103C900087CF83CF3FF603C73FDA3BCF87CFBFFF46
:103CA000BFC782C2BFDCBBCF87CF3FFFBFC803C344
:103CB000BFDBBBCF07C7BFFFBFD003C2BFDC83C71B
:103CC000C1C0009FFFDFEEC1E3DFEBC1E39FFFDF79
:103CD000F001E7DFFFDFFFC1E3DFFFDFFFC1E39FAD
:103CE000FFDFFFDFFFDFFFDFFFDFFFDFFFDFFFDFE4
:103CF000FFDFFC20C0004FFFEFFB6DF1CFFFEFFCBB
:103D00000EF1E0F3F0700027FFF7FBB77BE0F8F768
:103D1000FFF7FA077CE0F8F7FFF7F9057857FA970D
:103D20007AE7FFF7F9077877FA777BE7FFC558302E
:103D30000077FA777CE1F8F7FDC778E7FA4578571E
:103D4000F8977CE0F8F7FCC779E7F9477877F870DF
:103D5000D857F8977CE0F8F7FBC77AE4584000772B
:103D6000F8777877F870D857FA977AE7FEC778E04F
:103D7000F8F780477877FA777BE7FDC779E0F8F7BF
:103D8000FA477CE7FCC77AE7FA41D857F8977CE80E
:103D900008141BFE3BBCFC200029FE5DDE1DFE1C42
:103DA0003615FE25DEFDFF6DDE3C1E7D160C001D6A
:103DB000FE1DDE1DFE1C3615FEE5BE381E7DFF71A4
:103DC000DE383E3DE011DE1DFEDDDEB9FF71DE783E
:103DD0003E3DFED1DEF9FF31DEB9FED1DF39FF31E4
:103DE000DEB9FE913E15FFFDFE95DEB9FE51DE1DEA
:103DF000FFFDFF8CCA1D0615FFFDFF85DE39FFFDA7
:103E0000FF81DE79FFFDFF41DEB9FFFDFEB8450110
:103E10001400320000060002CFD2201FFFFFFC106A
:103E20000BFFF6040380C0201010008058B0907083
:103E300070E078F01828140816140E1A0503818211
:103E40000201C30181820181C5060201C3860241CC
:103E5000000086E1C8E1209042787819B85C0C1C1B
:103E6000343A395E49603DEE0A005B06000904827F
:103E700007414160A1D120B16120E0E1C0F1EFFF35
:103E8000EAF3CB01F0500027F8A0E827FFF7FFF78F
:103E9000FFF7FFF7FFF7FFF7FFF7FFF7FFF7FFF772
:103EA000FFF7FFF7FC148920202038780B9C182C92
:103EB000201C30009BFC18407384A3FFFBFCA40A69
:103EC000040B0A070D0281C0C10100E180C0C100DE
:103ED000C0E2830100E1C3011FE0C6E1C8E1146054
:103EE000C9E15FFFDFFFDFFFDFFFDFFFDFFFDFFF96
:103EF000DFFFDFFFDFFFDFFFDFFFDFFFDFFFDFFFD2
:103F0000DFE85224808080E1E02E7060B08070C0D5
:103F1000026FF06101CE128FFFEFF29028102C2873
:103F20001C340A07030404038603030403038A0CF6
:103F30000403870C047F831B872384518327857F99
:103F4000FF7FA148920202038780B9C182C201C3E8
:103F50000009BFC18407384A3FE88074030E00148B
:103F600000001F0005E551A53D1B04BF974794F4D1
:103F70006C32FE551A51DCC6507AF779CF5EED38B7
:103F8000EEE3283C493C978926927731741FFFFF66
:103F9000FFFBE6E8FF5CDD1FD7EBF5F761AA3FBE4C
:103FA0006E93E79FB67B70B50E1C9A49F6DB61FEF7
:103FB000BB5C37EF9DA4F55B273EBF5FAFE79FB5C6
:103FC000FA6D739F967ED66A270100050708814027
:103FD000E090482C0E06100D018341E110384C1E74
:103FE0001508080680C2E0301860B8140E1A100FC9
:103FF0000E87C421D0F8140E15040787884461D1B8
:10400000189412130C078789C3A1D0E8A4562C502A
:104010000F0E8783C145E1F18388780C4E030E872C
:1040200046635100F878DC4C7E0A1F0F8B83C3C7B0
:1040300022F138843E29128E8BC44522F1E8AC76F9
:1040400034B010C00CDA260048FF1F0482C1209053
:10405000382BFC4411FE120F0977078B3FC7C5634D
:104060003108AC4E090383BFC7C2C1E21FE0E24F73
:10407000F120F07176F888040620FF05108D44DFEA
:10408000E207E0E27107F888A45E1F1089C5224F9D
:10409000010FF07128D475FFFDFE622F108BC7A2AF
:1040A000EFFFEFFFB147F8B8AC422B178ABFFFBF55
:1040B000D541A06FF05037F8A84C0E10FF050567EA
:1040C000067E028B3FC1C29FE2221138AC42090337
:1040D00085419FE1E26FF0AF00CFF0D15861403CE5
:1040E00076271D8A4762EDF110080C4DFE0A1F1D50
:1040F00087BFCBC7A2F1087C3E2912780880C7236E
:104100001148AC7634FFFEFFB112884522B147FF5B
:10411000A8140E09027F8A8141E110584C1E1AFF33
:1041200010FC04FF090D7F8B87C120B07823FC3C75
:104130003DFE0E04FF13197F828E4481C19FE0A2D1
:104140000FF1B048841209048846A32FF11137F803
:1041500048C03C3C522F0F8CC3E39157F898A45EA3
:104160003D128E83843FE9C120AFF130683C2207C5
:104170000983C2A10EE0F0B80C0618FF1B0F88459A
:1041800061F0281C29FE2220FF070484C303E1E21A
:104190006FF05148ABFC4C3DFE0E1EDF0F0080C49B
:1041A000C9C0A331A883FC643E1F1707878E45E270
:1041B00071087C5224FF19158EC69FF6E05037F81F
:1041C00098141E110584C1E1B0982B38345A0202AC
:1041D00006FF171089C561F0482C1DFE221EFF073F
:1041E0000284BC034062B197F828E449FE2620FF10
:1041F00007106F8780412210482412211A8CBFC6F5
:1042000044E211807878A45E1F1987C722AFF1912C
:1042100028E83843FE841A0704823FC54120F098FD
:104220001C220F077F88863FC3429FE2E210481C92
:104230002A0CFF0F137F83823FC4C41FE0A2915852
:1042400063FC444DFE36031380C3A1D0F8EC3DFE61
:104250002220FF081F0F018F45E210F87C5224FF37
:10426000131C8C4522B1D8D3FFFBFEC46E211187ED
:10427000445FFEA09057F8282BFC542207097F8248
:1042800077077E02863FC1C35FE2233108AC4E0947
:104290000383C11FE1E20FF0B0B7F8C89458A01E25
:1042A0001D108743A1D1787BFC4C41FE0A211A895D
:1042B000BFCBC522F0F8844E2912780808028F443B
:1042C000A351D7FFF7F9B8F3FC5BBC23FFFBFF5406
:1042D000397E0DFFFC0058840102006400001D00BF
:1042E0000294CA6535A9ECA7014F9A6E2CD32EC64D
:1042F0001EA74C9B4BB4759966FAFD5590C864395E
:104300000A9C9EE34897CC66B4AA8526C742ABE5D3
:1043100027947B5E82CB49AB5630DB9CBDFF9FC6AA
:10432000EF4F6855AA14E69578B465A632990CB695
:104330005B39A14C64B3DA55EE73349CCE6632928D
:10434000E0880C0A0502809AC4C06070482C1606EA
:104350001013068383C14220C0F11028203C14169C
:10436000040E0F098541E0F0483C2A15091F078516
:1043700041A05048140A0E40110685C289E087E228
:104380002030C85C1E150585C303E1E1B0E87C0E52
:10439000170387C3A1A0F0D0C884461B1286C4624D
:1043A00010C370781C4623138A45610700F018ACCF
:1043B0005A2D1189C2E251757088845A2D13894291
:1043C00083E221D0D8AC5A270807888043229188FD
:1043D000AC4A170A8CA0040002BC04C26050283208
:1043E000F43B4024120B087F8A8141E10FF1B08732
:1043F000F898A436010183BFC28C024522D0D80CA4
:104400001E33028441A1707288586C5A2B0B85C1EF
:10441000C9E087E1C200A06FF088E11168B3FC1425
:104420006A351B5F888B4362D118743E348E0EEE62
:10443000070F86C22381F0F118745A270D8DC49995
:10444000E1E030386C0E23138828043FC146E24F68
:10445000F15017F828B44E200F110084BF0140E33B
:1044600030284843030400960000330002F379AF7C
:10447000C0505C0E047F3F198CEDE3319DC4663360
:10448000CDE6CDB3D198CEEA3319EAC6633D98CCD8
:1044900067B5198CEE63319E0C6633E18CC67CD116
:1044A00098CFA23319F2C6633A18C8001FCE331949
:1044B000FAC6633AF8CC678D198CFFE3319E2C66FF
:1044C00033AE8CC6795198CF4A3319D14CA65B587C
:1044D000CC67E1198CEDA3319DFC6633E48CC67D7D
:1044E000B198CFC63319F1C6633A3974BB65B2D9F6
:1044F0007125D2EE8F47A3F1F8FC7BF2E9778E5D50
:104500002EFFFFFFFC0974BBC12E9778A5D2EC6487
:10451000614C46020407020003068581C0607028D2
:1045200014120B0682C1205020582804020F028466
:10453000426150B8642E15098240A0E2B070886CC8
:104540003A1F1088C4A1F0E86C20660E05138A4556
:1045500020B158B4560D148A44C1E0A05048545EAE
:1045600029148C46635148A46E1420050282C3A30B
:104570009148A4523A03051C874141E0A3D148FC6D
:104580003221208CC82210C90C523C0F041805227D
:1045900091C924B249348812081E0A4F14940201AA
:1045A0000001CA22927280394C52552A95CAE5728E
:1045B000A95452526F092C96C52572E974BA571442
:1045C00096CB16612052C948B824A41C159A0E5FD8
:1045D0003098CC25ED10A110CDF0C0042E2060D174
:1045E00070180C02012786028142C0608180E013AE
:1045F0002994CA31158AC561A0704230908804029E
:1046000029188046228090804051D8E04014301C08
:104610000A3408043C05328DC3223168CC5A232663
:10462000834CA4E3E07008A47E472592C96471B965
:10463000902C1402011E993BC44023C0F071E81471
:10464000AA572E0082954525E5F092C993BC140126
:10465000DE0A652C4A05964CA500007080706080CB
:10466000289A2C11F020003CA6521C10FF461F1463
:10467000E10502814120B0682C10220E030081C0A8
:10468000605088F42D5E0A17098240A03030E8257A
:1046900050385C5A1E06063307028DCBC12081C0FC
:1046A000A651E8B83C140A090E8EC6633160102882
:1046B0008C721D0881402051E8A45245261F829328
:1046C00043A29148F03C13B03000283C149E2928A6
:1046D0009533C24AA51149383C1CA5DC08000E5789
:1046E000149483C1402052C9604024AE292C961BEB
:1046F000C1C5252100400072C0785800201CC66347
:104700003107075F839783C14BDE229FE69DE083DD
:10471000E2A030083C0606FF110380C1E01017F844
:10472000293C32170C85BFC20B4140A65329946225
:104730002B158AC340E09FE12108B05188B4600A7C
:1047400009DC081C0A3B1C05028600C146A38FF049
:104750007279946E19118B4662D119341A64DF078D
:10476000328A4523F2392C964B238DCCA2840050FB
:1047700028F4CA50CE09148A4A2291E07838F40A03
:10478000552B9700414AA292F7F85993FC10041454
:104790005264E00902964B265280003843C03040F4
:1047A000144D160A11297F8A94CA658FF2A0300130
:1047B0000400C80000220002AFDDF1F32994C81004
:1047C0000AC779C8522D38A8BC724351B863EB565A
:1047D000CBED62CD74A5DB31937A052A6B3CA155F4
:1047E0006E791C86432180C06028140A044221107F
:1047F00097C9A17D8D94EFFDDCB6FFBF1E6FF797C3
:1048000023DEDB4D7FDD09EFFBF7F2FF7FBFB2E96F
:10481000342BFDDBB6FFBC991E66B28FFEE84F3924
:104820007ABA3FFBFDFE2E0280C0A050300848142B
:1048300010E80E0B06078881C1C1E0A1008060F07E
:10484000D0980402150B078A86436010E040407838
:1048500068143E0110078C8840223028944E291598
:104860008AC5A2B158A44E250281C0207028BC621E
:1048700033028146A05028CC622E0F291B89C72203
:10488000B158EC562B1C89C6C1E109E2C1E523D120
:1048900088F80424801E1A3F1F8FC0A050202820B3
:1048A000786900281000187C38FC63FF9C0A0521F9
:1048B00001027F89078D7FC27F0281409FFFDFE673
:1048C000633028146A05027F89078D7FC28FBF82FB
:1048D0003FFFBFCCC86050201027F89078C7FC2756
:1048E000F0281409FE908A0001000000000700056E
:1048F000FB8001F3AF794DEE300E08261A02000658
:104900000B0E0D05020003088580C081A14000A0A8
:10491000624080E04020A0F0407040F140304220F2
:1049200042D0F028180814101E22030281C0E07043
:1049300051704178407848203C34060306808782D5
:10494000C0202360411040F0A2F070504023482066
:1049500078282C16083006100430040E060F0C00C0
:10496000100E064105048203028382B74182C1838F
:10497000413883BBC28342804B000100E80300053D
:10498000000598D2B39FFE74E63131C2064840401C
:10499000036010181000583CBC0C02081E24160AB4
:1049A000090282044187C341038100A081E10541DE
:1049B00040E103E143C140E0C3E904018BE2CFE100
:1049C0000BE1C541468115E48003405C000100E82D
:1049D0000300070005BFDFF9B008066FFF00807114
:1049E000F8FEAFFD42A101001E1F908140C000A053
:1049F000104824000E0E0B0683410220C1E160A086
:104A0000C0404090207830404818D4303C102038C6
:104A100000E8BC7C0C960A0D05078304043482026E
:104A2000023786088306834789812B8837CF8039F0
:104A3000000200F40100040005DBFFF6705B840255
:104A400002001F020002078B818001084780C1001D
:104A500043084280C1004307C3878507C207850F0B
:104A6000EF2FD0800EBFD2884687FFAFD6800600DA
:104A7000A30308006400001B0002D2E974BA4D26AB
:104A80008F61B0D7E8F47A2CB65B2DAFD7EBB45A70
:104A90002D0E572B94D76BB5994CA64F2994C96E00
:104AA000F77B9C46230DBADD6E30F87C2EE773B79A
:104AB000C361B09C6E3712F379BBF1B8DC3E2F179F
:104AC00087D2E973EF379BB747A3CFBC5E00A0B98D
:104AD000C540D018098C64080008182207038041DB
:104AE0000000A0105828382418000A010783C021AC
:104AF000000040F0709000203838500010802038BE
:104B00002C02010B858141C321856130D86C021CC8
:104B100000040E0F0F0002078F80442202F13118AB
:104B200088141C4A240D0B1389818245000081C121
:104B3000420162A0005008B45A0117000210040795
:104B4000028C0001402331924080784000B8D46844
:104B50001C31C60C002DC610001D8209C6120301AF
:104B600007045884070281000103C40001410000CA
:104B700084011821E0F075E8B000382C157A200087
:104B80000E100004BD08000D0A00025E83000885B7
:104B9000C2C0A0DB60800121B0D658C87800103CAC
:104BA000444E260F10DB071300028044622481115B
:104BB00070002700C8CC65FE35C608002DA61C0075
:104BC0001182081E120703070460847182830001AA
:104BD00003C1B043C2400084011821C1C157A1C024
:104BE00000E03015E88000381000103C5C1000092F
:104BF0007A0C00220F0702836502000482C140C1C3
:104C00001B610000A100004DB110D86C021400041B
:104C1000DB0F0F00028042E1648100F08001711817
:104C20008BFC6B8C10005B8C20003B04138C2432BB
:104C3000180E08B1080E050E00020788000207874B
:104C40006088884417A2C000E07035E880003830E2
:104C50000012F42000342400097A0C00201C080003
:104C600009B60800120301658C81000103C441608C
:104C7000B0082000136C3C20000A01078392044214
:104C800080009C032170B7F8D7182000B6987000F8
:104C9000458020784894481C182009C60A2800043A
:104CA0000F06C10F1500021004608707055E87001C
:104CB00003864317A20000E1C00040F1EBD0600181
:104CC000110880141B6C1000240E060608DB080077
:104CD000050600026D8880C06010900026D878100C
:104CE000001040112044100009C0320F077F8D6969
:104CF00002070D080A608271848B4581C116211C50
:104D000060A3000040F1000040F0EC1111A8D2F4C3
:104D100058001C4A24BD1000071400025E840006DF
:104D20008A80012F4180040381000136C1000243C3
:104D30002180608DB0800050E00026D8881C0C1EB9
:104D400021B60E0C000500884409022120004E0106
:104D500080E1CE3060016D30E0008C1040F0913881
:104D600098382304238C144C00081E0D821E2E003C
:104D7000042008C10F198CAF458001C5A2CBD1001A
:104D80000071800025E84078A5E8300088D4680AE2
:104D90000DB6080012251203046D8400028A00017A
:104DA00036C443219008A800136C3C380008200842
:104DB00090201E10002E21107F8D7182000B7184B7
:104DC00000076082718486C341C118211C60A1E084
:104DD0000040F06C10E0F0EC1111188AF458001C3F
:104DE0004E26BD100E0B1389AF42000345C000973D
:104DF000A0C0022331902836D8200048B4599632FA
:104E00003000040F11128903C436C1C50000A0117F
:104E1000A8D12044540009C0301C20940001000097
:104E200000000C0003A25DF2D008C402D3B3EFC0AF
:104E3000253FFFFFFF7FBFDFF67B3D9C663319B345
:104E4000D9ECF4DA6D3603018080406030200088B0
:104E50000C06010181C060800100C040205050005C
:104E600080F02078283000407C803C207C7C1C3CFA
:104E70001E0E0F0B08080683C201E100608001C10D
:104E800060E0600180F0A1F1D0184C260D0A84C2C8
:104E9000410081E1E0703090307888303C1084101F
:104EA0003C1B40140E030A81C0C60101E0D840A09B
:104EB00030B00050482800E800A800680004035003
:104EC000D0DF3B3EF478690101225613E27378800B
:104ED0002520230972616E646F6D697365207261AC
:104EE000696E626F7720736D6F6F746869650D0A04
:104EF000207E0963686F6F7365206E65787420701B
:104F0000726573657420666F72207261696E626F7C
:104F10007720736D6F6F746869650D0A203C656E4C
:104F20007465723E097072696E7420706172616D91
:104F300065746572730D0A20650973776974636817
:104F400020746F206E657874204566666563740D05
:104F50000A20700973776974636820746F206E6526
:104F600078742070616C657474650D0A207B7D090E
:104F70007475726E20657874656E64656420706106
:104F80006C6574746520626C656E64696E67206F11
:104F90006E2F6F66660D0A205B5D097475726E2058
:104FA0006C696E6561722070616C657474652062F5
:104FB0006C656E64696E67206F6E2F6F66660D0A92
:104FC000202C2E3C3E096368616E676520636F6C20
:104FD0006F7572206379636C696E672072617465A6
:104FE0000D0A206242096272696768746E657373A4
:104FF00020646F776E2F75700D0A20644409626912
:105000006E61727920646974686572206F66662FBC
:105010006F6E0D0A2066460964656372656173658B
:105020002F696E6372656173652066616465206FC8
:10503000757420726174650D0A0000000000240080
:1050400027002A001B4E704A2F4ACB497849E64870
:10505000AE476344D7425B3F0E3E1F3B44384F2C64
:105060000F2C282BD02A84276525892410249A22E6
:10507000F621431D3F1AA718B2179115A114C313A7
:105080002C136F10B30FE80E2F0EC80D210D1C0C42
:105090007B063B0313022801627269676874096624
:1050A0006164650978770979770978640979640911
:1050B0007864640979646409626364094650530042
:1050C0003F0000000000230026002900000000002F
:1050D000250028002B000404040404040404020234
:1050E0000202020203030303030301020408102067
:1050F0004080010204081020010204081020000072
:105100000008000201000003040700000000000086
:105110000000113211241FBECFEFD8E0DEBFCDBF9B
:1051200011E0A0E0B1E0ECE3F7E702C005900D92DA
:10513000AE35B107D9F728E0AEE5B1E001C01D9268
:10514000A935B207E1F718E2CAE8D8E204C021970E
:10515000FE010E94763BC938D107C9F70E94673229
:105160000C949C3B0C9400000F931F93CF93DF9300
:105170008031C8F5E0917305F091740520917F05A9
:10518000682F70E0309709F44BC04091750550913D
:10519000760530917E0510E000E090E080E0061793
:1051A00017078CF020937F05F0937405E093730547
:1051B000509376054093750530937E05DF91CF912E
:1051C0001F910F910895211121C0309779F4109209
:1051D0007F051092740510927305509376054093E5
:1051E000750530937E058FEF9FEFE8CFEA0121969A
:1051F00041595A4FDA0151963C91EC17FD0721F4C1
:10520000D0E0C0E0F0E0E0E0AE0120E8880F991FB8
:10521000C22FC32309F0816026950F5F1F4FBFCFB8
:10522000AB014150510981E090E002C0880F991F05
:105230004A95E2F7281719060CF0A7CFD4CFEBE078
:10524000F1E52491E7EFF0E59491E3EEF0E5E491E8
:10525000EE23C9F0222339F0233001F1A8F42130E4
:1052600019F1223029F1F0E0EE0FFF1FE453FF4A5D
:10527000A591B4912FB7F894EC91811126C0909527
:105280009E239C932FBF08952730A9F02830C9F0A2
:10529000243049F7209180002F7D03C020918000A9
:1052A0002F7720938000DFCF24B52F7724BDDBCF6D
:1052B00024B52F7DFBCF2091B0002F772093B00035
:1052C000D2CF2091B0002F7DF9CF9E2BDACFDC0119
:1052D00017962C91179730E0F901E651FF4AE491B7
:1052E0001696EC9316972A523F4AF9018491E82FBB
:1052F000F0E0EE0FFF1FE453FF4A8591949113965F
:105300009C938E931297F9012491E22FF0E0EE0F17
:10531000FF1FEE53FF4A8591949115969C938E93AF
:105320001497089580E991E00895AF92BF92CF92CB
:10533000DF92EF92FF920F931F93CF93DF936C0155
:105340007B018B01040F151FEB015E01AE18BF0836
:10535000C017D10759F06991D601ED91FC910190E8
:10536000F081E02DC6010995892B79F7C501DF9100
:10537000CF911F910F91FF90EF90DF90CF90BF9052
:10538000AF900895FC01538D448D252F30E0842F7C
:1053900090E0821B930B541710F0CF96089501975D
:1053A0000895FC01918D828D981761F0A28DAE0F4A
:1053B000BF2FB11D5D968C91928D9F5F9F73928FD1
:1053C00090E008958FEF9FEF0895FC01918D828DFD
:1053D000981731F0828DE80FF11D858D90E00895CA
:1053E0008FEF9FEF0895FC01918D228D892F90E022
:1053F000805C9F4F821B91098F739927089585ECDC
:1054000094E00E94F32921E0892B09F420E0822F07
:10541000089580E090E0892B29F00E94FF298111F6
:105420000C9400000895FC01A48DA80FB92FB11DA4
:10543000A35ABF4F2C91848D90E001968F739927CA
:10544000848FA689B7892C93A089B1898C918370A8
:1054500080648C93938D848D981306C00288F389A1
:10546000E02D80818F7D80830895EF92FF920F93CE
:105470001F93CF93DF93EC0181E0888F9B8D8C8D00
:1054800098131AC0E889F989808185FF15C09FB7F4
:10549000F894EE89FF896083E889F98980818370B7
:1054A000806480839FBF81E090E0DF91CF911F9166
:1054B0000F91FF90EF900895F62E0B8D10E00F5F87
:1054C0001F4F0F731127E02E8C8D8E110CC00FB65D
:1054D00007FCFACFE889F989808185FFF5CFCE01F5
:1054E0000E94132AF1CFEB8DEC0FFD2FF11DE35A33
:1054F000FF4FF0829FB7F8940B8FEA89FB89808178
:105500008062CFCFCF93DF93EC01888D8823B9F0F1
:10551000AA89BB89E889F9898C9185FD03C08081BE
:1055200086FD0DC00FB607FCF7CF8C9185FFF2CF3B
:10553000808185FFEDCFCE010E94132AE9CFDF9154
:10554000CF9108953FB7F8948091610190916201E5
:10555000A0916301B091640126B5A89B05C02F3FBF
:1055600019F00196A11DB11D3FBFBA2FA92F982F89
:105570008827BC01CD01620F711D811D911D42E084
:10558000660F771F881F991F4A95D1F708952F92AC
:105590003F924F925F926F927F928F929F92AF92C3
:1055A000BF92CF92DF92EF92FF920F931F93CF9310
:1055B000DF93CDB7DEB729970FB6F894DEBF0FBEE5
:1055C000CDBF898749835A836B837C830091BF0455
:1055D0001091C004BDE78B2E912CA12CB12C01158C
:1055E000110509F46BC0D801ED91FC910084F1859F
:1055F000E02DC80109951C01D8011296ED91FC918E
:10560000C12CD12C7601412C512C320120E030E00C
:10561000A901009791F06081260F311D411D511D98
:105620006181460E511C611C711C6281C60ED11C29
:10563000E11CF11C01973396ECCFA0E5B0E00E948D
:105640000E3B6D837E838F839887A7E3B0E0A30131
:1056500092010E940E3B2B013C01ABE4B0E0A7019C
:1056600096010E940E3B2D813E814F815885C32EAD
:10567000D42EE52EFF2445E0429D9001439D300D40
:105680001124C20ED31EE11CF11C8C0C9D1CAE1CFF
:10569000BF1C452C562C672C7724840C951CA61C0B
:1056A000B71C472F582F692F7727840E951EA61EEB
:1056B000B71ED80114960D911C9191CFB985CB2EB0
:1056C000D12CF12CE12CA7019601C501B4010E9457
:1056D000523B872E982EA92EBB2429813A814B81DB
:1056E0005C8182169306A406B50668F0A7019601B0
:1056F00069817A818B819C810E94523BA501940132
:105700000E94213B2987898529960FB6F894DEBF30
:105710000FBECDBFDF91CF911F910F91FF90EF9002
:10572000DF90CF90BF90AF909F908F907F906F90C1
:105730005F904F903F902F900895FC01A281B3811C
:105740009C9186812681982381E0921380E00895C0
:10575000FC0186810280F381E02D90818095892370
:1057600080830895FC0196810280F381E02D808181
:10577000892B808308950F931F93CF93DF932091FC
:105780005F012F5F322F377030935F0120FF2BC0F6
:1057900020E831FD2064347009F02062205FFC01B4
:1057A000EC01239600E011E06485662329F070E0A7
:1057B000C8010E94623B6F5F6187322F369F030EE4
:1057C00030E0311D1124311110C01682662311F012
:1057D000615061873196EC17FD0731F7DF91CF916A
:1057E0001F910F91089520E0D4CF31503683EECF32
:1057F0004F925F926F927F928F92AF92BF92CF92B1
:10580000DF92EF920F931F93CF93DF933C01EB0155
:105810000E94A22AF30127853089621B730B6A302C
:105820007105B0F3F894E881F9817BB174606BB1D4
:105830006B7F6BB9CA848F812C2D281B822F2F83FD
:10584000BF844A805B801D850C85DE841F5F0F5FEF
:10585000D3949E813885A984EB844181D20120E0D4
:10586000C32F522F322F3181442788943111380FA2
:1058700008F43FEF8195889410FD430F4795889475
:1058800011FD430F4795889412FD430F4795889467
:1058900013FD430F4795889414FD430F4795889453
:1058A00015FD430F4795889416FD430F479588943F
:1058B00017FD430F47958894232F1111242F8C0D2A
:1058C000422F002C7BB900C047FF6BB930812227E3
:1058D000889400C000C0002C6BB93111390F00C092
:1058E000002C7BB900C046FF6BB908F43FEF9195DF
:1058F000889400C000C0002C6BB900FD230F00C0CD
:10590000002C7BB900C045FF6BB92795889401FD39
:10591000230F00C000C0002C6BB92795889400C0ED
:10592000002C7BB900C044FF6BB902FD230F279503
:10593000889400C000C0002C6BB903FD230F00C089
:10594000002C7BB900C043FF6BB92795889404FDF8
:10595000230F00C000C0002C6BB92795889400C0AD
:10596000002C7BB900C042FF6BB905FD230F2795C2
:10597000889400C000C0002C6BB906FD230F00C046
:10598000002C7BB900C041FF6BB92795889407FDB7
:10599000230F00C000C0002C6BB92795889400C06D
:1059A000002C7BB900C040FF6BB9432F0111422F7F
:1059B0009A0D00C000C0002C6BB900C000C0002CC4
:1059C0007BB900C047FF6BB932812227889400C0A1
:1059D00000C0002C6BB931113C0F00C0002C7BB90A
:1059E00000C046FF6BB908F43FEFEB0DF11D00C09E
:1059F00000C0002C6BB9D0FC230F00C0002C7BB979
:105A000000C045FF6BB927958894D1FC230F00C0D7
:105A100000C0002C6BB92795889400C0002C7BB97E
:105A200000C044FF6BB9D2FC230F2795889400C0B7
:105A300000C0002C6BB9D3FC230F00C0002C7BB935
:105A400000C043FF6BB927958894D4FC230F00C096
:105A500000C0002C6BB92795889400C0002C7BB93E
:105A600000C042FF6BB9D5FC230F2795889400C076
:105A700000C0002C6BB9D6FC230F00C0002C7BB9F2
:105A800000C041FF6BB927958894D7FC230F00C055
:105A900000C0002C6BB92795889400C0002C7BB9FE
:105AA00000C040FF6BB9432FD110422FC19500C0F9
:105AB00000C0002C6BB9CE0D00C000C07BB900C087
:105AC00047FF6BB931812227889400C000C0002CA9
:105AD0006BB93111380F00C0002C7BB900C046FFF4
